:020000040800F2
:1000000000500020A5070008F5070008F5070008C4
:10001000F5070008F5070008F507000800000000D4
:10002000000000000000000000000000F5070008CC
:10003000F507000800000000F5070008F5070008B4
:10004000F5070008F5070008F5070008F5070008A0
:10005000F5070008F5070008F5070008F507000890
:10006000F5070008F5070008F5070008F507000880
:10007000F5070008F5070008F5070008F507000870
:10008000F5070008F5070008F5070008F507000860
:10009000F5070008F5070008F5070008F507000850
:1000A000F5070008F5070008F5070008F507000840
:1000B000F5070008F5070008F5070008F507000830
:1000C000F5070008F5070008F5070008F507000820
:1000D000F5070008F5070008F5070008F507000810
:1000E000F5070008F507000800000000F507000804
:1000F000F5070008F5070008F5070008F5070008F0
:10010000F5070008F5070008F5070008F5070008DF
:10011000F5070008F5070008F5070008F5070008CF
:10012000F5070008F5070008F5070008F5070008BF
:1001300010B5054C237833B9044B13B10448AFF321
:1001400000800123237010BD180000200000000073
:100150004008000808B5034B1BB103490348AFF33F
:10016000008008BD000000001C00002040080008BE
:1001700080B485B000AF78600123FB737B68002BEF
:1001800000F0E3807B681B78052B00F2DB807B6846
:100190005B780F2B00F2D6807B685B78DB08BB7343
:1001A0007B685B7803F007037B73BB7B002B02D07B
:1001B000012B63D0C5E07B681B781A46674B53F868
:1001C00022301A687B7B9B006FF00F0101FA03F36A
:1001D00019467B681B781846604B53F820300A405C
:1001E0001A607B681B781A465C4B53F822301A68F9
:1001F0007B689B7819467B7B9B0001FA03F31946C9
:100200007B681B781846554B53F820300A431A6018
:100210007B689B78002B18D17B681B781A464F4B64
:1002200053F822301A687B681B7919467B7B9B0048
:10023000023301FA03F319467B681B781846474BD3
:1002400053F820300A431A607BE07B681B781A461B
:10025000424B53F822301A687B68DB7819467B7B67
:100260009B00023301FA03F319467B681B7818469A
:100270003A4B53F820300A431A6062E07B681B78DF
:100280001A46364B53F822305A687B7B9B006FF03E
:100290000F0101FA03F319467B681B7818462F4BB0
:1002A00053F820300A405A607B681B781A462B4B63
:1002B00053F822305A687B689B7819467B7B9B00F9
:1002C00001FA03F319467B681B781846234B53F851
:1002D00020300A435A607B689B78002B18D17B68DA
:1002E0001B781A461D4B53F822305A687B681B79DD
:1002F00019467B7B9B00023301FA03F319467B68A6
:100300001B781846154B53F820300A435A6017E003
:100310007B681B781A46114B53F822305A687B6869
:10032000DB7819467B7B9B00023301FA03F3194605
:100330007B681B781846094B53F820300A435A60F3
:1003400000BF04E00023FB7301E00223FB73FB7B8F
:1003500018461437BD4680BC704700BF000000201F
:1003600080B485B000AF0346FB710B46BB711346EA
:100370007B710123FB73FB79052B1FD8BB790F2BF6
:100380001CD87B79002B0BD0012B13D1BA79FB79C8
:100390000E4951F82330012101FA02F21A610CE0F2
:1003A000BA79FB79094951F82330012101FA02F2A7
:1003B0005A6102E00023FB7300BF01E00023FB73DE
:1003C000FB7B18461437BD4680BC704700000020F8
:1003D00080B485B000AF03460A46FB711346BB717B
:1003E0000023FB60FB79022B5DD0022B00F386809B
:1003F000002B2DD0012B40F08180BB79012B1BD12C
:10040000454B1B68444A43F48033136002E0FB68A9
:100410000133FB60404B1B6803F40033002B04D115
:10042000FB6842F20F729342F1D9FB6842F20F72FD
:10043000934265D9002369E0BB79002B06D1364B86
:100440001B68354A23F48033136059E000235DE0D4
:10045000BB79012B1BD1304B1B682F4A43F00103A2
:10046000136002E0FB680133FB602B4B1B6803F059
:100470000203002B04D1FB6842F20F729342F1D9C0
:10048000FB6842F20F7293423CD900233EE0BB79F5
:10049000002B06D1204B1B681F4A23F00103136079
:1004A00030E0002332E0BB79012B1BD11A4B1B68D3
:1004B000194A43F08073136002E0FB680133FB606C
:1004C000154B1B6803F00073002B04D1FB6842F24C
:1004D0000F729342F1D9FB6842F20F72934213D923
:1004E000002313E0BB79002B06D10B4B1B680A4A93
:1004F00023F08073136007E0002307E0002305E08A
:1005000000BF02E000BF00E000BF0123184614371F
:10051000BD4680BC704700BF0010024080B483B06D
:1005200000AF0346FB71FB79022B20D0022B2BDCA2
:10053000002B02D0012B0DD026E0174B5B68164A2A
:1005400023F001035360144B5B68134A23F002034A
:1005500053601BE0104B5B680F4A43F0010353608C
:100560000D4B5B680C4A23F0020353600EE00A4B0C
:100570005B68094A23F001035360074B5B68064A36
:1005800043F00203536001E0002300E0012318461A
:100590000C37BD4680BC70470010024080B483B069
:1005A00000AF0346FB71074B9B69FA79012101FA01
:1005B00002F21146034A0B43936100BF0C37BD465C
:1005C00080BC70470010024080B483B000AF7860F8
:1005D0000E4B1B680D4A23F0010313600B4A7B6826
:1005E00053600A4B01229A60084B1B68074A43F08C
:1005F00004031360054B1B68044A23F002031360D5
:1006000000BF0C37BD4680BC704700BF10E000E063
:1006100080B483B000AF7860124A7B684FF47A717F
:1006200001FB03F353600F4B1B680E4A43F00103B9
:10063000136000BF0B4B1B6803F48033002BF9D011
:10064000084B1B68074A23F001031360054B002287
:100650005A60044B01229A6000BF0C37BD4680BC33
:10066000704700BF10E000E080B58AB000AF002006
:10067000FFF754FF01210020FFF7AAFE0220FFF739
:100680008DFF0320FFF78AFF0420FFF787FF0A2072
:10069000FFF79AFF07F1200300221A601A71022364
:1006A00087F82130022387F8223007F1200318460B
:1006B000FFF75EFD07F1180300221A601A7101238B
:1006C0007B760223BB7607F118031846FFF750FD2F
:1006D00007F1100300221A601A7102233B740F23E2
:1006E0007B740223BB7407F110031846FFF740FD2B
:1006F00007F1080300221A601A7102233B720E23CD
:100700007B720223BB7207F108031846FFF730FD26
:100710003B4600221A601A7102233B700D237B7046
:100720000223BB703B461846FFF722FD0122012140
:100730000020FFF715FE012202210020FFF710FE26
:1007400001220D210220FFF70BFE01220E210220C3
:10075000FFF706FE01220F210220FFF701FE42F201
:100760001070FFF755FF002201210020FFF7F8FD70
:10077000002202210020FFF7F3FD00220D210220BC
:10078000FFF7EEFD00220E210220FFF7E9FD002217
:100790000F210220FFF7E4FD42F21070FFF738FF4F
:1007A000C4E700000D488546AFF300800C480D49B2
:1007B0000D4A002302E0D458C4500433C4188C42BC
:1007C000F9D30A4A0A4C002301E013600432A24222
:1007D000FBD300F011F8FFF747FFFEE700500020C1
:1007E0000000002018000020600800081800002009
:1007F00034000020FEE7000070B500260C4D0D4CC3
:10080000641BA410A64209D100F01AF800260A4D74
:100810000A4C641BA410A64205D170BD55F8043BD8
:1008200098470136EEE755F8043B98470136F2E762
:100830005808000858080008580800085C08000814
:10084000F8B500BFF8BC08BC9E467047F8B500BFBD
:08085000F8BC08BC9E4670478D
:04085800550100083E
:04085C00310100085E
:1008600000080140000C014000100140001401404C
:0808700000180140001C0140CA
:04000005080007A543
:00000001FF
